{
  "_format": "hh-sol-artifact-1",
  "contractName": "Cert",
  "sourceName": "contracts/Cert.sol",
  "abi": [
    {
      "inputs": [],
      "stateMutability": "nonpayable",
      "type": "constructor"
    },
    {
      "inputs": [
        {
          "internalType": "string",
          "name": "",
          "type": "string"
        }
      ],
      "name": "Certificates",
      "outputs": [
        {
          "internalType": "string",
          "name": "course",
          "type": "string"
        },
        {
          "internalType": "string",
          "name": "name",
          "type": "string"
        },
        {
          "internalType": "string",
          "name": "grade",
          "type": "string"
        },
        {
          "internalType": "string",
          "name": "date",
          "type": "string"
        }
      ],
      "stateMutability": "view",
      "type": "function"
    },
    {
      "inputs": [
        {
          "internalType": "string",
          "name": "_id",
          "type": "string"
        },
        {
          "internalType": "string",
          "name": "_course",
          "type": "string"
        },
        {
          "internalType": "string",
          "name": "_name",
          "type": "string"
        },
        {
          "internalType": "string",
          "name": "_grade",
          "type": "string"
        },
        {
          "internalType": "string",
          "name": "_date",
          "type": "string"
        }
      ],
      "name": "issue",
      "outputs": [],
      "stateMutability": "nonpayable",
      "type": "function"
    }
  ],
  "bytecode": "0x608060405234801561001057600080fd5b50336000806101000a81548173ffffffffffffffffffffffffffffffffffffffff021916908373ffffffffffffffffffffffffffffffffffffffff160217905550610b86806100606000396000f3fe608060405234801561001057600080fd5b50600436106100365760003560e01c80630dfb1e861461003b5780639d3becb214610057575b600080fd5b61005560048036038101906100509190610579565b61008a565b005b610071600480360381019061006c9190610680565b6101b9565b6040516100819493929190610748565b60405180910390f35b60008054906101000a900473ffffffffffffffffffffffffffffffffffffffff1673ffffffffffffffffffffffffffffffffffffffff163373ffffffffffffffffffffffffffffffffffffffff1614610118576040517f08c379a000000000000000000000000000000000000000000000000000000000815260040161010f906107f5565b60405180910390fd5b6040518060800160405280858152602001848152602001838152602001828152506001866040516101499190610851565b9081526020016040518091039020600082015181600001908161016c9190610a7e565b5060208201518160010190816101829190610a7e565b5060408201518160020190816101989190610a7e565b5060608201518160030190816101ae9190610a7e565b509050505050505050565b6001818051602081018201805184825260208301602085012081835280955050505050506000915090508060000180546101f290610897565b80601f016020809104026020016040519081016040528092919081815260200182805461021e90610897565b801561026b5780601f106102405761010080835404028352916020019161026b565b820191906000526020600020905b81548152906001019060200180831161024e57829003601f168201915b50505050509080600101805461028090610897565b80601f01602080910402602001604051908101604052809291908181526020018280546102ac90610897565b80156102f95780601f106102ce576101008083540402835291602001916102f9565b820191906000526020600020905b8154815290600101906020018083116102dc57829003601f168201915b50505050509080600201805461030e90610897565b80601f016020809104026020016040519081016040528092919081815260200182805461033a90610897565b80156103875780601f1061035c57610100808354040283529160200191610387565b820191906000526020600020905b81548152906001019060200180831161036a57829003601f168201915b50505050509080600301805461039c90610897565b80601f01602080910402602001604051908101604052809291908181526020018280546103c890610897565b80156104155780601f106103ea57610100808354040283529160200191610415565b820191906000526020600020905b8154815290600101906020018083116103f857829003601f168201915b5050505050905084565b6000604051905090565b600080fd5b600080fd5b600080fd5b600080fd5b6000601f19601f8301169050919050565b7f4e487b7100000000000000000000000000000000000000000000000000000000600052604160045260246000fd5b6104868261043d565b810181811067ffffffffffffffff821117156104a5576104a461044e565b5b80604052505050565b60006104b861041f565b90506104c4828261047d565b919050565b600067ffffffffffffffff8211156104e4576104e361044e565b5b6104ed8261043d565b9050602081019050919050565b82818337600083830152505050565b600061051c610517846104c9565b6104ae565b90508281526020810184848401111561053857610537610438565b5b6105438482856104fa565b509392505050565b600082601f8301126105605761055f610433565b5b8135610570848260208601610509565b91505092915050565b600080600080600060a0868803121561059557610594610429565b5b600086013567ffffffffffffffff8111156105b3576105b261042e565b5b6105bf8882890161054b565b955050602086013567ffffffffffffffff8111156105e0576105df61042e565b5b6105ec8882890161054b565b945050604086013567ffffffffffffffff81111561060d5761060c61042e565b5b6106198882890161054b565b935050606086013567ffffffffffffffff81111561063a5761063961042e565b5b6106468882890161054b565b925050608086013567ffffffffffffffff8111156106675761066661042e565b5b6106738882890161054b565b9150509295509295909350565b60006020828403121561069657610695610429565b5b600082013567ffffffffffffffff8111156106b4576106b361042e565b5b6106c08482850161054b565b91505092915050565b600081519050919050565b600082825260208201905092915050565b60005b838110156107035780820151818401526020810190506106e8565b60008484015250505050565b600061071a826106c9565b61072481856106d4565b93506107348185602086016106e5565b61073d8161043d565b840191505092915050565b60006080820190508181036000830152610762818761070f565b90508181036020830152610776818661070f565b9050818103604083015261078a818561070f565b9050818103606083015261079e818461070f565b905095945050505050565b7f4163636573732044656e69656400000000000000000000000000000000000000600082015250565b60006107df600d836106d4565b91506107ea826107a9565b602082019050919050565b6000602082019050818103600083015261080e816107d2565b9050919050565b600081905092915050565b600061082b826106c9565b6108358185610815565b93506108458185602086016106e5565b80840191505092915050565b600061085d8284610820565b915081905092915050565b7f4e487b7100000000000000000000000000000000000000000000000000000000600052602260045260246000fd5b600060028204905060018216806108af57607f821691505b6020821081036108c2576108c1610868565b5b50919050565b60008190508160005260206000209050919050565b60006020601f8301049050919050565b600082821b905092915050565b60006008830261092a7fffffffffffffffffffffffffffffffffffffffffffffffffffffffffffffffff826108ed565b61093486836108ed565b95508019841693508086168417925050509392505050565b6000819050919050565b6000819050919050565b600061097b6109766109718461094c565b610956565b61094c565b9050919050565b6000819050919050565b61099583610960565b6109a96109a182610982565b8484546108fa565b825550505050565b600090565b6109be6109b1565b6109c981848461098c565b505050565b5b818110156109ed576109e26000826109b6565b6001810190506109cf565b5050565b601f821115610a3257610a03816108c8565b610a0c846108dd565b81016020851015610a1b578190505b610a2f610a27856108dd565b8301826109ce565b50505b505050565b600082821c905092915050565b6000610a5560001984600802610a37565b1980831691505092915050565b6000610a6e8383610a44565b9150826002028217905092915050565b610a87826106c9565b67ffffffffffffffff811115610aa057610a9f61044e565b5b610aaa8254610897565b610ab58282856109f1565b600060209050601f831160018114610ae85760008415610ad6578287015190505b610ae08582610a62565b865550610b48565b601f198416610af6866108c8565b60005b82811015610b1e57848901518255600182019150602085019450602081019050610af9565b86831015610b3b5784890151610b37601f891682610a44565b8355505b6001600288020188555050505b50505050505056fea2646970667358221220c22506e4927a587c871a7f13bec28f6185f1fd004534fa0258f8f854e21da74564736f6c63430008120033",
  "linkReferences": {},
  "deployedLinkReferences": {}
}