{
  "_format": "hh-sol-artifact-1",
  "contractName": "Cert",
  "sourceName": "contracts/Cert.sol",
  "abi": [
    {
      "inputs": [],
      "stateMutability": "nonpayable",
      "type": "constructor"
    },
    {
      "anonymous": false,
      "inputs": [
        {
          "indexed": false,
          "internalType": "uint256",
          "name": "",
          "type": "uint256"
        },
        {
          "indexed": false,
          "internalType": "string",
          "name": "",
          "type": "string"
        },
        {
          "indexed": false,
          "internalType": "string",
          "name": "",
          "type": "string"
        }
      ],
      "name": "Issued",
      "type": "event"
    },
    {
      "inputs": [
        {
          "internalType": "uint256",
          "name": "",
          "type": "uint256"
        }
      ],
      "name": "Certificates",
      "outputs": [
        {
          "internalType": "string",
          "name": "name",
          "type": "string"
        },
        {
          "internalType": "string",
          "name": "course",
          "type": "string"
        },
        {
          "internalType": "string",
          "name": "grade",
          "type": "string"
        },
        {
          "internalType": "string",
          "name": "date",
          "type": "string"
        }
      ],
      "stateMutability": "view",
      "type": "function"
    },
    {
      "inputs": [
        {
          "internalType": "uint256",
          "name": "_id",
          "type": "uint256"
        },
        {
          "internalType": "string",
          "name": "_name",
          "type": "string"
        },
        {
          "internalType": "string",
          "name": "_course",
          "type": "string"
        },
        {
          "internalType": "string",
          "name": "_grade",
          "type": "string"
        },
        {
          "internalType": "string",
          "name": "_date",
          "type": "string"
        }
      ],
      "name": "issue",
      "outputs": [],
      "stateMutability": "nonpayable",
      "type": "function"
    }
  ],
  "bytecode": "0x608060405234801561001057600080fd5b50336000806101000a81548173ffffffffffffffffffffffffffffffffffffffff021916908373ffffffffffffffffffffffffffffffffffffffff160217905550610b95806100606000396000f3fe608060405234801561001057600080fd5b50600436106100365760003560e01c80639622c8361461003b578063d1e7be261461006e575b600080fd5b61005560048036038101906100509190610483565b61008a565b6040516100659493929190610540565b60405180910390f35b610088600480360381019061008391906106d6565b6102da565b005b60016020528060005260406000206000915090508060000180546100ad906107f0565b80601f01602080910402602001604051908101604052809291908181526020018280546100d9906107f0565b80156101265780601f106100fb57610100808354040283529160200191610126565b820191906000526020600020905b81548152906001019060200180831161010957829003601f168201915b50505050509080600101805461013b906107f0565b80601f0160208091040260200160405190810160405280929190818152602001828054610167906107f0565b80156101b45780601f10610189576101008083540402835291602001916101b4565b820191906000526020600020905b81548152906001019060200180831161019757829003601f168201915b5050505050908060020180546101c9906107f0565b80601f01602080910402602001604051908101604052809291908181526020018280546101f5906107f0565b80156102425780601f1061021757610100808354040283529160200191610242565b820191906000526020600020905b81548152906001019060200180831161022557829003601f168201915b505050505090806003018054610257906107f0565b80601f0160208091040260200160405190810160405280929190818152602001828054610283906107f0565b80156102d05780601f106102a5576101008083540402835291602001916102d0565b820191906000526020600020905b8154815290600101906020018083116102b357829003601f168201915b5050505050905084565b60008054906101000a900473ffffffffffffffffffffffffffffffffffffffff1673ffffffffffffffffffffffffffffffffffffffff163373ffffffffffffffffffffffffffffffffffffffff1614610368576040517f08c379a000000000000000000000000000000000000000000000000000000000815260040161035f9061086d565b60405180910390fd5b6040518060800160405280858152602001848152602001838152602001828152506001600087815260200190815260200160002060008201518160000190816103b19190610a39565b5060208201518160010190816103c79190610a39565b5060408201518160020190816103dd9190610a39565b5060608201518160030190816103f39190610a39565b509050507f9147d4a1a1d2955efda6bee6679ad3db6e5117b35bf39fbca93c627e9d1ba03585848460405161042a93929190610b1a565b60405180910390a15050505050565b6000604051905090565b600080fd5b600080fd5b6000819050919050565b6104608161044d565b811461046b57600080fd5b50565b60008135905061047d81610457565b92915050565b60006020828403121561049957610498610443565b5b60006104a78482850161046e565b91505092915050565b600081519050919050565b600082825260208201905092915050565b60005b838110156104ea5780820151818401526020810190506104cf565b60008484015250505050565b6000601f19601f8301169050919050565b6000610512826104b0565b61051c81856104bb565b935061052c8185602086016104cc565b610535816104f6565b840191505092915050565b6000608082019050818103600083015261055a8187610507565b9050818103602083015261056e8186610507565b905081810360408301526105828185610507565b905081810360608301526105968184610507565b905095945050505050565b600080fd5b600080fd5b7f4e487b7100000000000000000000000000000000000000000000000000000000600052604160045260246000fd5b6105e3826104f6565b810181811067ffffffffffffffff82111715610602576106016105ab565b5b80604052505050565b6000610615610439565b905061062182826105da565b919050565b600067ffffffffffffffff821115610641576106406105ab565b5b61064a826104f6565b9050602081019050919050565b82818337600083830152505050565b600061067961067484610626565b61060b565b905082815260208101848484011115610695576106946105a6565b5b6106a0848285610657565b509392505050565b600082601f8301126106bd576106bc6105a1565b5b81356106cd848260208601610666565b91505092915050565b600080600080600060a086880312156106f2576106f1610443565b5b60006107008882890161046e565b955050602086013567ffffffffffffffff81111561072157610720610448565b5b61072d888289016106a8565b945050604086013567ffffffffffffffff81111561074e5761074d610448565b5b61075a888289016106a8565b935050606086013567ffffffffffffffff81111561077b5761077a610448565b5b610787888289016106a8565b925050608086013567ffffffffffffffff8111156107a8576107a7610448565b5b6107b4888289016106a8565b9150509295509295909350565b7f4e487b7100000000000000000000000000000000000000000000000000000000600052602260045260246000fd5b6000600282049050600182168061080857607f821691505b60208210810361081b5761081a6107c1565b5b50919050565b7f4163636573732044656e69656400000000000000000000000000000000000000600082015250565b6000610857600d836104bb565b915061086282610821565b602082019050919050565b600060208201905081810360008301526108868161084a565b9050919050565b60008190508160005260206000209050919050565b60006020601f8301049050919050565b600082821b905092915050565b6000600883026108ef7fffffffffffffffffffffffffffffffffffffffffffffffffffffffffffffffff826108b2565b6108f986836108b2565b95508019841693508086168417925050509392505050565b6000819050919050565b600061093661093161092c8461044d565b610911565b61044d565b9050919050565b6000819050919050565b6109508361091b565b61096461095c8261093d565b8484546108bf565b825550505050565b600090565b61097961096c565b610984818484610947565b505050565b5b818110156109a85761099d600082610971565b60018101905061098a565b5050565b601f8211156109ed576109be8161088d565b6109c7846108a2565b810160208510156109d6578190505b6109ea6109e2856108a2565b830182610989565b50505b505050565b600082821c905092915050565b6000610a10600019846008026109f2565b1980831691505092915050565b6000610a2983836109ff565b9150826002028217905092915050565b610a42826104b0565b67ffffffffffffffff811115610a5b57610a5a6105ab565b5b610a6582546107f0565b610a708282856109ac565b600060209050601f831160018114610aa35760008415610a91578287015190505b610a9b8582610a1d565b865550610b03565b601f198416610ab18661088d565b60005b82811015610ad957848901518255600182019150602085019450602081019050610ab4565b86831015610af65784890151610af2601f8916826109ff565b8355505b6001600288020188555050505b505050505050565b610b148161044d565b82525050565b6000606082019050610b2f6000830186610b0b565b8181036020830152610b418185610507565b90508181036040830152610b558184610507565b905094935050505056fea2646970667358221220b81afa19fb6be63ee7829ae2ba326187d6982d374c85ef5a3880b6066e31998664736f6c63430008120033",
  "linkReferences": {},
  "deployedLinkReferences": {}
}