{"contracts/Cert.sol":{"Cert":{"abi":[{"inputs":[],"stateMutability":"nonpayable","type":"constructor"},{"inputs":[{"internalType":"string","name":"","type":"string"}],"name":"Certificates","outputs":[{"internalType":"string","name":"course","type":"string"},{"internalType":"string","name":"name","type":"string"},{"internalType":"string","name":"grade","type":"string"},{"internalType":"string","name":"date","type":"string"}],"stateMutability":"view","type":"function"},{"inputs":[{"internalType":"string","name":"_id","type":"string"},{"internalType":"string","name":"_course","type":"string"},{"internalType":"string","name":"_name","type":"string"},{"internalType":"string","name":"_grade","type":"string"},{"internalType":"string","name":"_date","type":"string"}],"name":"issue","outputs":[],"stateMutability":"nonpayable","type":"function"}],"evm":{"bytecode":{"linkReferences":{},"object":"608060405234801561001057600080fd5b50336000806101000a81548173ffffffffffffffffffffffffffffffffffffffff021916908373ffffffffffffffffffffffffffffffffffffffff160217905550610b86806100606000396000f3fe608060405234801561001057600080fd5b50600436106100365760003560e01c80630dfb1e861461003b5780639d3becb214610057575b600080fd5b61005560048036038101906100509190610579565b61008a565b005b610071600480360381019061006c9190610680565b6101b9565b6040516100819493929190610748565b60405180910390f35b60008054906101000a900473ffffffffffffffffffffffffffffffffffffffff1673ffffffffffffffffffffffffffffffffffffffff163373ffffffffffffffffffffffffffffffffffffffff1614610118576040517f08c379a000000000000000000000000000000000000000000000000000000000815260040161010f906107f5565b60405180910390fd5b6040518060800160405280858152602001848152602001838152602001828152506001866040516101499190610851565b9081526020016040518091039020600082015181600001908161016c9190610a7e565b5060208201518160010190816101829190610a7e565b5060408201518160020190816101989190610a7e565b5060608201518160030190816101ae9190610a7e565b509050505050505050565b6001818051602081018201805184825260208301602085012081835280955050505050506000915090508060000180546101f290610897565b80601f016020809104026020016040519081016040528092919081815260200182805461021e90610897565b801561026b5780601f106102405761010080835404028352916020019161026b565b820191906000526020600020905b81548152906001019060200180831161024e57829003601f168201915b50505050509080600101805461028090610897565b80601f01602080910402602001604051908101604052809291908181526020018280546102ac90610897565b80156102f95780601f106102ce576101008083540402835291602001916102f9565b820191906000526020600020905b8154815290600101906020018083116102dc57829003601f168201915b50505050509080600201805461030e90610897565b80601f016020809104026020016040519081016040528092919081815260200182805461033a90610897565b80156103875780601f1061035c57610100808354040283529160200191610387565b820191906000526020600020905b81548152906001019060200180831161036a57829003601f168201915b50505050509080600301805461039c90610897565b80601f01602080910402602001604051908101604052809291908181526020018280546103c890610897565b80156104155780601f106103ea57610100808354040283529160200191610415565b820191906000526020600020905b8154815290600101906020018083116103f857829003601f168201915b5050505050905084565b6000604051905090565b600080fd5b600080fd5b600080fd5b600080fd5b6000601f19601f8301169050919050565b7f4e487b7100000000000000000000000000000000000000000000000000000000600052604160045260246000fd5b6104868261043d565b810181811067ffffffffffffffff821117156104a5576104a461044e565b5b80604052505050565b60006104b861041f565b90506104c4828261047d565b919050565b600067ffffffffffffffff8211156104e4576104e361044e565b5b6104ed8261043d565b9050602081019050919050565b82818337600083830152505050565b600061051c610517846104c9565b6104ae565b90508281526020810184848401111561053857610537610438565b5b6105438482856104fa565b509392505050565b600082601f8301126105605761055f610433565b5b8135610570848260208601610509565b91505092915050565b600080600080600060a0868803121561059557610594610429565b5b600086013567ffffffffffffffff8111156105b3576105b261042e565b5b6105bf8882890161054b565b955050602086013567ffffffffffffffff8111156105e0576105df61042e565b5b6105ec8882890161054b565b945050604086013567ffffffffffffffff81111561060d5761060c61042e565b5b6106198882890161054b565b935050606086013567ffffffffffffffff81111561063a5761063961042e565b5b6106468882890161054b565b925050608086013567ffffffffffffffff8111156106675761066661042e565b5b6106738882890161054b565b9150509295509295909350565b60006020828403121561069657610695610429565b5b600082013567ffffffffffffffff8111156106b4576106b361042e565b5b6106c08482850161054b565b91505092915050565b600081519050919050565b600082825260208201905092915050565b60005b838110156107035780820151818401526020810190506106e8565b60008484015250505050565b600061071a826106c9565b61072481856106d4565b93506107348185602086016106e5565b61073d8161043d565b840191505092915050565b60006080820190508181036000830152610762818761070f565b90508181036020830152610776818661070f565b9050818103604083015261078a818561070f565b9050818103606083015261079e818461070f565b905095945050505050565b7f4163636573732044656e69656400000000000000000000000000000000000000600082015250565b60006107df600d836106d4565b91506107ea826107a9565b602082019050919050565b6000602082019050818103600083015261080e816107d2565b9050919050565b600081905092915050565b600061082b826106c9565b6108358185610815565b93506108458185602086016106e5565b80840191505092915050565b600061085d8284610820565b915081905092915050565b7f4e487b7100000000000000000000000000000000000000000000000000000000600052602260045260246000fd5b600060028204905060018216806108af57607f821691505b6020821081036108c2576108c1610868565b5b50919050565b60008190508160005260206000209050919050565b60006020601f8301049050919050565b600082821b905092915050565b60006008830261092a7fffffffffffffffffffffffffffffffffffffffffffffffffffffffffffffffff826108ed565b61093486836108ed565b95508019841693508086168417925050509392505050565b6000819050919050565b6000819050919050565b600061097b6109766109718461094c565b610956565b61094c565b9050919050565b6000819050919050565b61099583610960565b6109a96109a182610982565b8484546108fa565b825550505050565b600090565b6109be6109b1565b6109c981848461098c565b505050565b5b818110156109ed576109e26000826109b6565b6001810190506109cf565b5050565b601f821115610a3257610a03816108c8565b610a0c846108dd565b81016020851015610a1b578190505b610a2f610a27856108dd565b8301826109ce565b50505b505050565b600082821c905092915050565b6000610a5560001984600802610a37565b1980831691505092915050565b6000610a6e8383610a44565b9150826002028217905092915050565b610a87826106c9565b67ffffffffffffffff811115610aa057610a9f61044e565b5b610aaa8254610897565b610ab58282856109f1565b600060209050601f831160018114610ae85760008415610ad6578287015190505b610ae08582610a62565b865550610b48565b601f198416610af6866108c8565b60005b82811015610b1e57848901518255600182019150602085019450602081019050610af9565b86831015610b3b5784890151610b37601f891682610a44565b8355505b6001600288020188555050505b50505050505056fea2646970667358221220c22506e4927a587c871a7f13bec28f6185f1fd004534fa0258f8f854e21da74564736f6c63430008120033","opcodes":"PUSH1 0x80 PUSH1 0x40 MSTORE CALLVALUE DUP1 ISZERO PUSH2 0x10 JUMPI PUSH1 0x0 DUP1 REVERT JUMPDEST POP CALLER PUSH1 0x0 DUP1 PUSH2 0x100 EXP DUP2 SLOAD DUP2 PUSH20 0xFFFFFFFFFFFFFFFFFFFFFFFFFFFFFFFFFFFFFFFF MUL NOT AND SWAP1 DUP4 PUSH20 0xFFFFFFFFFFFFFFFFFFFFFFFFFFFFFFFFFFFFFFFF AND MUL OR SWAP1 SSTORE POP PUSH2 0xB86 DUP1 PUSH2 0x60 PUSH1 0x0 CODECOPY PUSH1 0x0 RETURN INVALID PUSH1 0x80 PUSH1 0x40 MSTORE CALLVALUE DUP1 ISZERO PUSH2 0x10 JUMPI PUSH1 0x0 DUP1 REVERT JUMPDEST POP PUSH1 0x4 CALLDATASIZE LT PUSH2 0x36 JUMPI PUSH1 0x0 CALLDATALOAD PUSH1 0xE0 SHR DUP1 PUSH4 0xDFB1E86 EQ PUSH2 0x3B JUMPI DUP1 PUSH4 0x9D3BECB2 EQ PUSH2 0x57 JUMPI JUMPDEST PUSH1 0x0 DUP1 REVERT JUMPDEST PUSH2 0x55 PUSH1 0x4 DUP1 CALLDATASIZE SUB DUP2 ADD SWAP1 PUSH2 0x50 SWAP2 SWAP1 PUSH2 0x579 JUMP JUMPDEST PUSH2 0x8A JUMP JUMPDEST STOP JUMPDEST PUSH2 0x71 PUSH1 0x4 DUP1 CALLDATASIZE SUB DUP2 ADD SWAP1 PUSH2 0x6C SWAP2 SWAP1 PUSH2 0x680 JUMP JUMPDEST PUSH2 0x1B9 JUMP JUMPDEST PUSH1 0x40 MLOAD PUSH2 0x81 SWAP5 SWAP4 SWAP3 SWAP2 SWAP1 PUSH2 0x748 JUMP JUMPDEST PUSH1 0x40 MLOAD DUP1 SWAP2 SUB SWAP1 RETURN JUMPDEST PUSH1 0x0 DUP1 SLOAD SWAP1 PUSH2 0x100 EXP SWAP1 DIV PUSH20 0xFFFFFFFFFFFFFFFFFFFFFFFFFFFFFFFFFFFFFFFF AND PUSH20 0xFFFFFFFFFFFFFFFFFFFFFFFFFFFFFFFFFFFFFFFF AND CALLER PUSH20 0xFFFFFFFFFFFFFFFFFFFFFFFFFFFFFFFFFFFFFFFF AND EQ PUSH2 0x118 JUMPI PUSH1 0x40 MLOAD PUSH32 0x8C379A000000000000000000000000000000000000000000000000000000000 DUP2 MSTORE PUSH1 0x4 ADD PUSH2 0x10F SWAP1 PUSH2 0x7F5 JUMP JUMPDEST PUSH1 0x40 MLOAD DUP1 SWAP2 SUB SWAP1 REVERT JUMPDEST PUSH1 0x40 MLOAD DUP1 PUSH1 0x80 ADD PUSH1 0x40 MSTORE DUP1 DUP6 DUP2 MSTORE PUSH1 0x20 ADD DUP5 DUP2 MSTORE PUSH1 0x20 ADD DUP4 DUP2 MSTORE PUSH1 0x20 ADD DUP3 DUP2 MSTORE POP PUSH1 0x1 DUP7 PUSH1 0x40 MLOAD PUSH2 0x149 SWAP2 SWAP1 PUSH2 0x851 JUMP JUMPDEST SWAP1 DUP2 MSTORE PUSH1 0x20 ADD PUSH1 0x40 MLOAD DUP1 SWAP2 SUB SWAP1 KECCAK256 PUSH1 0x0 DUP3 ADD MLOAD DUP2 PUSH1 0x0 ADD SWAP1 DUP2 PUSH2 0x16C SWAP2 SWAP1 PUSH2 0xA7E JUMP JUMPDEST POP PUSH1 0x20 DUP3 ADD MLOAD DUP2 PUSH1 0x1 ADD SWAP1 DUP2 PUSH2 0x182 SWAP2 SWAP1 PUSH2 0xA7E JUMP JUMPDEST POP PUSH1 0x40 DUP3 ADD MLOAD DUP2 PUSH1 0x2 ADD SWAP1 DUP2 PUSH2 0x198 SWAP2 SWAP1 PUSH2 0xA7E JUMP JUMPDEST POP PUSH1 0x60 DUP3 ADD MLOAD DUP2 PUSH1 0x3 ADD SWAP1 DUP2 PUSH2 0x1AE SWAP2 SWAP1 PUSH2 0xA7E JUMP JUMPDEST POP SWAP1 POP POP POP POP POP POP POP JUMP JUMPDEST PUSH1 0x1 DUP2 DUP1 MLOAD PUSH1 0x20 DUP2 ADD DUP3 ADD DUP1 MLOAD DUP5 DUP3 MSTORE PUSH1 0x20 DUP4 ADD PUSH1 0x20 DUP6 ADD KECCAK256 DUP2 DUP4 MSTORE DUP1 SWAP6 POP POP POP POP POP POP PUSH1 0x0 SWAP2 POP SWAP1 POP DUP1 PUSH1 0x0 ADD DUP1 SLOAD PUSH2 0x1F2 SWAP1 PUSH2 0x897 JUMP JUMPDEST DUP1 PUSH1 0x1F ADD PUSH1 0x20 DUP1 SWAP2 DIV MUL PUSH1 0x20 ADD PUSH1 0x40 MLOAD SWAP1 DUP2 ADD PUSH1 0x40 MSTORE DUP1 SWAP3 SWAP2 SWAP1 DUP2 DUP2 MSTORE PUSH1 0x20 ADD DUP3 DUP1 SLOAD PUSH2 0x21E SWAP1 PUSH2 0x897 JUMP JUMPDEST DUP1 ISZERO PUSH2 0x26B JUMPI DUP1 PUSH1 0x1F LT PUSH2 0x240 JUMPI PUSH2 0x100 DUP1 DUP4 SLOAD DIV MUL DUP4 MSTORE SWAP2 PUSH1 0x20 ADD SWAP2 PUSH2 0x26B JUMP JUMPDEST DUP3 ADD SWAP2 SWAP1 PUSH1 0x0 MSTORE PUSH1 0x20 PUSH1 0x0 KECCAK256 SWAP1 JUMPDEST DUP2 SLOAD DUP2 MSTORE SWAP1 PUSH1 0x1 ADD SWAP1 PUSH1 0x20 ADD DUP1 DUP4 GT PUSH2 0x24E JUMPI DUP3 SWAP1 SUB PUSH1 0x1F AND DUP3 ADD SWAP2 JUMPDEST POP POP POP POP POP SWAP1 DUP1 PUSH1 0x1 ADD DUP1 SLOAD PUSH2 0x280 SWAP1 PUSH2 0x897 JUMP JUMPDEST DUP1 PUSH1 0x1F ADD PUSH1 0x20 DUP1 SWAP2 DIV MUL PUSH1 0x20 ADD PUSH1 0x40 MLOAD SWAP1 DUP2 ADD PUSH1 0x40 MSTORE DUP1 SWAP3 SWAP2 SWAP1 DUP2 DUP2 MSTORE PUSH1 0x20 ADD DUP3 DUP1 SLOAD PUSH2 0x2AC SWAP1 PUSH2 0x897 JUMP JUMPDEST DUP1 ISZERO PUSH2 0x2F9 JUMPI DUP1 PUSH1 0x1F LT PUSH2 0x2CE JUMPI PUSH2 0x100 DUP1 DUP4 SLOAD DIV MUL DUP4 MSTORE SWAP2 PUSH1 0x20 ADD SWAP2 PUSH2 0x2F9 JUMP JUMPDEST DUP3 ADD SWAP2 SWAP1 PUSH1 0x0 MSTORE PUSH1 0x20 PUSH1 0x0 KECCAK256 SWAP1 JUMPDEST DUP2 SLOAD DUP2 MSTORE SWAP1 PUSH1 0x1 ADD SWAP1 PUSH1 0x20 ADD DUP1 DUP4 GT PUSH2 0x2DC JUMPI DUP3 SWAP1 SUB PUSH1 0x1F AND DUP3 ADD SWAP2 JUMPDEST POP POP POP POP POP SWAP1 DUP1 PUSH1 0x2 ADD DUP1 SLOAD PUSH2 0x30E SWAP1 PUSH2 0x897 JUMP JUMPDEST DUP1 PUSH1 0x1F ADD PUSH1 0x20 DUP1 SWAP2 DIV MUL PUSH1 0x20 ADD PUSH1 0x40 MLOAD SWAP1 DUP2 ADD PUSH1 0x40 MSTORE DUP1 SWAP3 SWAP2 SWAP1 DUP2 DUP2 MSTORE PUSH1 0x20 ADD DUP3 DUP1 SLOAD PUSH2 0x33A SWAP1 PUSH2 0x897 JUMP JUMPDEST DUP1 ISZERO PUSH2 0x387 JUMPI DUP1 PUSH1 0x1F LT PUSH2 0x35C JUMPI PUSH2 0x100 DUP1 DUP4 SLOAD DIV MUL DUP4 MSTORE SWAP2 PUSH1 0x20 ADD SWAP2 PUSH2 0x387 JUMP JUMPDEST DUP3 ADD SWAP2 SWAP1 PUSH1 0x0 MSTORE PUSH1 0x20 PUSH1 0x0 KECCAK256 SWAP1 JUMPDEST DUP2 SLOAD DUP2 MSTORE SWAP1 PUSH1 0x1 ADD SWAP1 PUSH1 0x20 ADD DUP1 DUP4 GT PUSH2 0x36A JUMPI DUP3 SWAP1 SUB PUSH1 0x1F AND DUP3 ADD SWAP2 JUMPDEST POP POP POP POP POP SWAP1 DUP1 PUSH1 0x3 ADD DUP1 SLOAD PUSH2 0x39C SWAP1 PUSH2 0x897 JUMP JUMPDEST DUP1 PUSH1 0x1F ADD PUSH1 0x20 DUP1 SWAP2 DIV MUL PUSH1 0x20 ADD PUSH1 0x40 MLOAD SWAP1 DUP2 ADD PUSH1 0x40 MSTORE DUP1 SWAP3 SWAP2 SWAP1 DUP2 DUP2 MSTORE PUSH1 0x20 ADD DUP3 DUP1 SLOAD PUSH2 0x3C8 SWAP1 PUSH2 0x897 JUMP JUMPDEST DUP1 ISZERO PUSH2 0x415 JUMPI DUP1 PUSH1 0x1F LT PUSH2 0x3EA JUMPI PUSH2 0x100 DUP1 DUP4 SLOAD DIV MUL DUP4 MSTORE SWAP2 PUSH1 0x20 ADD SWAP2 PUSH2 0x415 JUMP JUMPDEST DUP3 ADD SWAP2 SWAP1 PUSH1 0x0 MSTORE PUSH1 0x20 PUSH1 0x0 KECCAK256 SWAP1 JUMPDEST DUP2 SLOAD DUP2 MSTORE SWAP1 PUSH1 0x1 ADD SWAP1 PUSH1 0x20 ADD DUP1 DUP4 GT PUSH2 0x3F8 JUMPI DUP3 SWAP1 SUB PUSH1 0x1F AND DUP3 ADD SWAP2 JUMPDEST POP POP POP POP POP SWAP1 POP DUP5 JUMP JUMPDEST PUSH1 0x0 PUSH1 0x40 MLOAD SWAP1 POP SWAP1 JUMP JUMPDEST PUSH1 0x0 DUP1 REVERT JUMPDEST PUSH1 0x0 DUP1 REVERT JUMPDEST PUSH1 0x0 DUP1 REVERT JUMPDEST PUSH1 0x0 DUP1 REVERT JUMPDEST PUSH1 0x0 PUSH1 0x1F NOT PUSH1 0x1F DUP4 ADD AND SWAP1 POP SWAP2 SWAP1 POP JUMP JUMPDEST PUSH32 0x4E487B7100000000000000000000000000000000000000000000000000000000 PUSH1 0x0 MSTORE PUSH1 0x41 PUSH1 0x4 MSTORE PUSH1 0x24 PUSH1 0x0 REVERT JUMPDEST PUSH2 0x486 DUP3 PUSH2 0x43D JUMP JUMPDEST DUP2 ADD DUP2 DUP2 LT PUSH8 0xFFFFFFFFFFFFFFFF DUP3 GT OR ISZERO PUSH2 0x4A5 JUMPI PUSH2 0x4A4 PUSH2 0x44E JUMP JUMPDEST JUMPDEST DUP1 PUSH1 0x40 MSTORE POP POP POP JUMP JUMPDEST PUSH1 0x0 PUSH2 0x4B8 PUSH2 0x41F JUMP JUMPDEST SWAP1 POP PUSH2 0x4C4 DUP3 DUP3 PUSH2 0x47D JUMP JUMPDEST SWAP2 SWAP1 POP JUMP JUMPDEST PUSH1 0x0 PUSH8 0xFFFFFFFFFFFFFFFF DUP3 GT ISZERO PUSH2 0x4E4 JUMPI PUSH2 0x4E3 PUSH2 0x44E JUMP JUMPDEST JUMPDEST PUSH2 0x4ED DUP3 PUSH2 0x43D JUMP JUMPDEST SWAP1 POP PUSH1 0x20 DUP2 ADD SWAP1 POP SWAP2 SWAP1 POP JUMP JUMPDEST DUP3 DUP2 DUP4 CALLDATACOPY PUSH1 0x0 DUP4 DUP4 ADD MSTORE POP POP POP JUMP JUMPDEST PUSH1 0x0 PUSH2 0x51C PUSH2 0x517 DUP5 PUSH2 0x4C9 JUMP JUMPDEST PUSH2 0x4AE JUMP JUMPDEST SWAP1 POP DUP3 DUP2 MSTORE PUSH1 0x20 DUP2 ADD DUP5 DUP5 DUP5 ADD GT ISZERO PUSH2 0x538 JUMPI PUSH2 0x537 PUSH2 0x438 JUMP JUMPDEST JUMPDEST PUSH2 0x543 DUP5 DUP3 DUP6 PUSH2 0x4FA JUMP JUMPDEST POP SWAP4 SWAP3 POP POP POP JUMP JUMPDEST PUSH1 0x0 DUP3 PUSH1 0x1F DUP4 ADD SLT PUSH2 0x560 JUMPI PUSH2 0x55F PUSH2 0x433 JUMP JUMPDEST JUMPDEST DUP2 CALLDATALOAD PUSH2 0x570 DUP5 DUP3 PUSH1 0x20 DUP7 ADD PUSH2 0x509 JUMP JUMPDEST SWAP2 POP POP SWAP3 SWAP2 POP POP JUMP JUMPDEST PUSH1 0x0 DUP1 PUSH1 0x0 DUP1 PUSH1 0x0 PUSH1 0xA0 DUP7 DUP9 SUB SLT ISZERO PUSH2 0x595 JUMPI PUSH2 0x594 PUSH2 0x429 JUMP JUMPDEST JUMPDEST PUSH1 0x0 DUP7 ADD CALLDATALOAD PUSH8 0xFFFFFFFFFFFFFFFF DUP2 GT ISZERO PUSH2 0x5B3 JUMPI PUSH2 0x5B2 PUSH2 0x42E JUMP JUMPDEST JUMPDEST PUSH2 0x5BF DUP9 DUP3 DUP10 ADD PUSH2 0x54B JUMP JUMPDEST SWAP6 POP POP PUSH1 0x20 DUP7 ADD CALLDATALOAD PUSH8 0xFFFFFFFFFFFFFFFF DUP2 GT ISZERO PUSH2 0x5E0 JUMPI PUSH2 0x5DF PUSH2 0x42E JUMP JUMPDEST JUMPDEST PUSH2 0x5EC DUP9 DUP3 DUP10 ADD PUSH2 0x54B JUMP JUMPDEST SWAP5 POP POP PUSH1 0x40 DUP7 ADD CALLDATALOAD PUSH8 0xFFFFFFFFFFFFFFFF DUP2 GT ISZERO PUSH2 0x60D JUMPI PUSH2 0x60C PUSH2 0x42E JUMP JUMPDEST JUMPDEST PUSH2 0x619 DUP9 DUP3 DUP10 ADD PUSH2 0x54B JUMP JUMPDEST SWAP4 POP POP PUSH1 0x60 DUP7 ADD CALLDATALOAD PUSH8 0xFFFFFFFFFFFFFFFF DUP2 GT ISZERO PUSH2 0x63A JUMPI PUSH2 0x639 PUSH2 0x42E JUMP JUMPDEST JUMPDEST PUSH2 0x646 DUP9 DUP3 DUP10 ADD PUSH2 0x54B JUMP JUMPDEST SWAP3 POP POP PUSH1 0x80 DUP7 ADD CALLDATALOAD PUSH8 0xFFFFFFFFFFFFFFFF DUP2 GT ISZERO PUSH2 0x667 JUMPI PUSH2 0x666 PUSH2 0x42E JUMP JUMPDEST JUMPDEST PUSH2 0x673 DUP9 DUP3 DUP10 ADD PUSH2 0x54B JUMP JUMPDEST SWAP2 POP POP SWAP3 SWAP6 POP SWAP3 SWAP6 SWAP1 SWAP4 POP JUMP JUMPDEST PUSH1 0x0 PUSH1 0x20 DUP3 DUP5 SUB SLT ISZERO PUSH2 0x696 JUMPI PUSH2 0x695 PUSH2 0x429 JUMP JUMPDEST JUMPDEST PUSH1 0x0 DUP3 ADD CALLDATALOAD PUSH8 0xFFFFFFFFFFFFFFFF DUP2 GT ISZERO PUSH2 0x6B4 JUMPI PUSH2 0x6B3 PUSH2 0x42E JUMP JUMPDEST JUMPDEST PUSH2 0x6C0 DUP5 DUP3 DUP6 ADD PUSH2 0x54B JUMP JUMPDEST SWAP2 POP POP SWAP3 SWAP2 POP POP JUMP JUMPDEST PUSH1 0x0 DUP2 MLOAD SWAP1 POP SWAP2 SWAP1 POP JUMP JUMPDEST PUSH1 0x0 DUP3 DUP3 MSTORE PUSH1 0x20 DUP3 ADD SWAP1 POP SWAP3 SWAP2 POP POP JUMP JUMPDEST PUSH1 0x0 JUMPDEST DUP4 DUP2 LT ISZERO PUSH2 0x703 JUMPI DUP1 DUP3 ADD MLOAD DUP2 DUP5 ADD MSTORE PUSH1 0x20 DUP2 ADD SWAP1 POP PUSH2 0x6E8 JUMP JUMPDEST PUSH1 0x0 DUP5 DUP5 ADD MSTORE POP POP POP POP JUMP JUMPDEST PUSH1 0x0 PUSH2 0x71A DUP3 PUSH2 0x6C9 JUMP JUMPDEST PUSH2 0x724 DUP2 DUP6 PUSH2 0x6D4 JUMP JUMPDEST SWAP4 POP PUSH2 0x734 DUP2 DUP6 PUSH1 0x20 DUP7 ADD PUSH2 0x6E5 JUMP JUMPDEST PUSH2 0x73D DUP2 PUSH2 0x43D JUMP JUMPDEST DUP5 ADD SWAP2 POP POP SWAP3 SWAP2 POP POP JUMP JUMPDEST PUSH1 0x0 PUSH1 0x80 DUP3 ADD SWAP1 POP DUP2 DUP2 SUB PUSH1 0x0 DUP4 ADD MSTORE PUSH2 0x762 DUP2 DUP8 PUSH2 0x70F JUMP JUMPDEST SWAP1 POP DUP2 DUP2 SUB PUSH1 0x20 DUP4 ADD MSTORE PUSH2 0x776 DUP2 DUP7 PUSH2 0x70F JUMP JUMPDEST SWAP1 POP DUP2 DUP2 SUB PUSH1 0x40 DUP4 ADD MSTORE PUSH2 0x78A DUP2 DUP6 PUSH2 0x70F JUMP JUMPDEST SWAP1 POP DUP2 DUP2 SUB PUSH1 0x60 DUP4 ADD MSTORE PUSH2 0x79E DUP2 DUP5 PUSH2 0x70F JUMP JUMPDEST SWAP1 POP SWAP6 SWAP5 POP POP POP POP POP JUMP JUMPDEST PUSH32 0x4163636573732044656E69656400000000000000000000000000000000000000 PUSH1 0x0 DUP3 ADD MSTORE POP JUMP JUMPDEST PUSH1 0x0 PUSH2 0x7DF PUSH1 0xD DUP4 PUSH2 0x6D4 JUMP JUMPDEST SWAP2 POP PUSH2 0x7EA DUP3 PUSH2 0x7A9 JUMP JUMPDEST PUSH1 0x20 DUP3 ADD SWAP1 POP SWAP2 SWAP1 POP JUMP JUMPDEST PUSH1 0x0 PUSH1 0x20 DUP3 ADD SWAP1 POP DUP2 DUP2 SUB PUSH1 0x0 DUP4 ADD MSTORE PUSH2 0x80E DUP2 PUSH2 0x7D2 JUMP JUMPDEST SWAP1 POP SWAP2 SWAP1 POP JUMP JUMPDEST PUSH1 0x0 DUP2 SWAP1 POP SWAP3 SWAP2 POP POP JUMP JUMPDEST PUSH1 0x0 PUSH2 0x82B DUP3 PUSH2 0x6C9 JUMP JUMPDEST PUSH2 0x835 DUP2 DUP6 PUSH2 0x815 JUMP JUMPDEST SWAP4 POP PUSH2 0x845 DUP2 DUP6 PUSH1 0x20 DUP7 ADD PUSH2 0x6E5 JUMP JUMPDEST DUP1 DUP5 ADD SWAP2 POP POP SWAP3 SWAP2 POP POP JUMP JUMPDEST PUSH1 0x0 PUSH2 0x85D DUP3 DUP5 PUSH2 0x820 JUMP JUMPDEST SWAP2 POP DUP2 SWAP1 POP SWAP3 SWAP2 POP POP JUMP JUMPDEST PUSH32 0x4E487B7100000000000000000000000000000000000000000000000000000000 PUSH1 0x0 MSTORE PUSH1 0x22 PUSH1 0x4 MSTORE PUSH1 0x24 PUSH1 0x0 REVERT JUMPDEST PUSH1 0x0 PUSH1 0x2 DUP3 DIV SWAP1 POP PUSH1 0x1 DUP3 AND DUP1 PUSH2 0x8AF JUMPI PUSH1 0x7F DUP3 AND SWAP2 POP JUMPDEST PUSH1 0x20 DUP3 LT DUP2 SUB PUSH2 0x8C2 JUMPI PUSH2 0x8C1 PUSH2 0x868 JUMP JUMPDEST JUMPDEST POP SWAP2 SWAP1 POP JUMP JUMPDEST PUSH1 0x0 DUP2 SWAP1 POP DUP2 PUSH1 0x0 MSTORE PUSH1 0x20 PUSH1 0x0 KECCAK256 SWAP1 POP SWAP2 SWAP1 POP JUMP JUMPDEST PUSH1 0x0 PUSH1 0x20 PUSH1 0x1F DUP4 ADD DIV SWAP1 POP SWAP2 SWAP1 POP JUMP JUMPDEST PUSH1 0x0 DUP3 DUP3 SHL SWAP1 POP SWAP3 SWAP2 POP POP JUMP JUMPDEST PUSH1 0x0 PUSH1 0x8 DUP4 MUL PUSH2 0x92A PUSH32 0xFFFFFFFFFFFFFFFFFFFFFFFFFFFFFFFFFFFFFFFFFFFFFFFFFFFFFFFFFFFFFFFF DUP3 PUSH2 0x8ED JUMP JUMPDEST PUSH2 0x934 DUP7 DUP4 PUSH2 0x8ED JUMP JUMPDEST SWAP6 POP DUP1 NOT DUP5 AND SWAP4 POP DUP1 DUP7 AND DUP5 OR SWAP3 POP POP POP SWAP4 SWAP3 POP POP POP JUMP JUMPDEST PUSH1 0x0 DUP2 SWAP1 POP SWAP2 SWAP1 POP JUMP JUMPDEST PUSH1 0x0 DUP2 SWAP1 POP SWAP2 SWAP1 POP JUMP JUMPDEST PUSH1 0x0 PUSH2 0x97B PUSH2 0x976 PUSH2 0x971 DUP5 PUSH2 0x94C JUMP JUMPDEST PUSH2 0x956 JUMP JUMPDEST PUSH2 0x94C JUMP JUMPDEST SWAP1 POP SWAP2 SWAP1 POP JUMP JUMPDEST PUSH1 0x0 DUP2 SWAP1 POP SWAP2 SWAP1 POP JUMP JUMPDEST PUSH2 0x995 DUP4 PUSH2 0x960 JUMP JUMPDEST PUSH2 0x9A9 PUSH2 0x9A1 DUP3 PUSH2 0x982 JUMP JUMPDEST DUP5 DUP5 SLOAD PUSH2 0x8FA JUMP JUMPDEST DUP3 SSTORE POP POP POP POP JUMP JUMPDEST PUSH1 0x0 SWAP1 JUMP JUMPDEST PUSH2 0x9BE PUSH2 0x9B1 JUMP JUMPDEST PUSH2 0x9C9 DUP2 DUP5 DUP5 PUSH2 0x98C JUMP JUMPDEST POP POP POP JUMP JUMPDEST JUMPDEST DUP2 DUP2 LT ISZERO PUSH2 0x9ED JUMPI PUSH2 0x9E2 PUSH1 0x0 DUP3 PUSH2 0x9B6 JUMP JUMPDEST PUSH1 0x1 DUP2 ADD SWAP1 POP PUSH2 0x9CF JUMP JUMPDEST POP POP JUMP JUMPDEST PUSH1 0x1F DUP3 GT ISZERO PUSH2 0xA32 JUMPI PUSH2 0xA03 DUP2 PUSH2 0x8C8 JUMP JUMPDEST PUSH2 0xA0C DUP5 PUSH2 0x8DD JUMP JUMPDEST DUP2 ADD PUSH1 0x20 DUP6 LT ISZERO PUSH2 0xA1B JUMPI DUP2 SWAP1 POP JUMPDEST PUSH2 0xA2F PUSH2 0xA27 DUP6 PUSH2 0x8DD JUMP JUMPDEST DUP4 ADD DUP3 PUSH2 0x9CE JUMP JUMPDEST POP POP JUMPDEST POP POP POP JUMP JUMPDEST PUSH1 0x0 DUP3 DUP3 SHR SWAP1 POP SWAP3 SWAP2 POP POP JUMP JUMPDEST PUSH1 0x0 PUSH2 0xA55 PUSH1 0x0 NOT DUP5 PUSH1 0x8 MUL PUSH2 0xA37 JUMP JUMPDEST NOT DUP1 DUP4 AND SWAP2 POP POP SWAP3 SWAP2 POP POP JUMP JUMPDEST PUSH1 0x0 PUSH2 0xA6E DUP4 DUP4 PUSH2 0xA44 JUMP JUMPDEST SWAP2 POP DUP3 PUSH1 0x2 MUL DUP3 OR SWAP1 POP SWAP3 SWAP2 POP POP JUMP JUMPDEST PUSH2 0xA87 DUP3 PUSH2 0x6C9 JUMP JUMPDEST PUSH8 0xFFFFFFFFFFFFFFFF DUP2 GT ISZERO PUSH2 0xAA0 JUMPI PUSH2 0xA9F PUSH2 0x44E JUMP JUMPDEST JUMPDEST PUSH2 0xAAA DUP3 SLOAD PUSH2 0x897 JUMP JUMPDEST PUSH2 0xAB5 DUP3 DUP3 DUP6 PUSH2 0x9F1 JUMP JUMPDEST PUSH1 0x0 PUSH1 0x20 SWAP1 POP PUSH1 0x1F DUP4 GT PUSH1 0x1 DUP2 EQ PUSH2 0xAE8 JUMPI PUSH1 0x0 DUP5 ISZERO PUSH2 0xAD6 JUMPI DUP3 DUP8 ADD MLOAD SWAP1 POP JUMPDEST PUSH2 0xAE0 DUP6 DUP3 PUSH2 0xA62 JUMP JUMPDEST DUP7 SSTORE POP PUSH2 0xB48 JUMP JUMPDEST PUSH1 0x1F NOT DUP5 AND PUSH2 0xAF6 DUP7 PUSH2 0x8C8 JUMP JUMPDEST PUSH1 0x0 JUMPDEST DUP3 DUP2 LT ISZERO PUSH2 0xB1E JUMPI DUP5 DUP10 ADD MLOAD DUP3 SSTORE PUSH1 0x1 DUP3 ADD SWAP2 POP PUSH1 0x20 DUP6 ADD SWAP5 POP PUSH1 0x20 DUP2 ADD SWAP1 POP PUSH2 0xAF9 JUMP JUMPDEST DUP7 DUP4 LT ISZERO PUSH2 0xB3B JUMPI DUP5 DUP10 ADD MLOAD PUSH2 0xB37 PUSH1 0x1F DUP10 AND DUP3 PUSH2 0xA44 JUMP JUMPDEST DUP4 SSTORE POP JUMPDEST PUSH1 0x1 PUSH1 0x2 DUP9 MUL ADD DUP9 SSTORE POP POP POP JUMPDEST POP POP POP POP POP POP JUMP INVALID LOG2 PUSH5 0x6970667358 0x22 SLT KECCAK256 0xC2 0x25 MOD 0xE4 SWAP3 PUSH27 0x587C871A7F13BEC28F6185F1FD004534FA0258F8F854E21DA74564 PUSH20 0x6F6C634300081200330000000000000000000000 "},"methodIdentifiers":{"Certificates(string)":"9d3becb2","issue(string,string,string,string,string)":"0dfb1e86"}}}}}